{"project/contracts/Verifier.sol":{"Verifier":{"abi":[{"inputs":[],"name":"getVerificationKeyHash","outputs":[{"internalType":"bytes32","name":"","type":"bytes32"}],"stateMutability":"pure","type":"function"},{"inputs":[{"internalType":"uint256[]","name":"instances","type":"uint256[]"},{"internalType":"bytes","name":"proof","type":"bytes"}],"name":"verify","outputs":[{"internalType":"bool","name":"","type":"bool"}],"stateMutability":"pure","type":"function"}],"evm":{"bytecode":{"linkReferences":{},"object":"608060405234801561000f575f80fd5b5061020a8061001d5f395ff3fe608060405234801561000f575f80fd5b5060043610610034575f3560e01c8063937f6a1014610038578063bd205a901461006b575b5f80fd5b6040517f35100067837deec42cc0ce64016b9b3325a9d0f65d49f8cf4e225a1f2821d86781526020015b60405180910390f35b61007e61007936600461011a565b61008e565b6040519015158152602001610062565b5f836100d45760405162461bcd60e51b815260206004820152601060248201526f4e6f207075626c696320696e7075747360801b60448201526064015b60405180910390fd5b8161010f5760405162461bcd60e51b815260206004820152600b60248201526a22b6b83a3c90383937b7b360a91b60448201526064016100cb565b506001949350505050565b5f805f806040858703121561012d575f80fd5b843567ffffffffffffffff80821115610144575f80fd5b818701915087601f830112610157575f80fd5b813581811115610165575f80fd5b8860208260051b8501011115610179575f80fd5b602092830196509450908601359080821115610193575f80fd5b818701915087601f8301126101a6575f80fd5b8135818111156101b4575f80fd5b8860208285010111156101c5575f80fd5b9598949750506020019450505056fea2646970667358221220d563c04186e27669d1d0065601b23c276ab873d8d0889b5afbdcf95aeed1f00564736f6c63430008140033","opcodes":"PUSH1 0x80 PUSH1 0x40 MSTORE CALLVALUE DUP1 ISZERO PUSH2 0xF JUMPI PUSH0 DUP1 REVERT JUMPDEST POP PUSH2 0x20A DUP1 PUSH2 0x1D PUSH0 CODECOPY PUSH0 RETURN INVALID PUSH1 0x80 PUSH1 0x40 MSTORE CALLVALUE DUP1 ISZERO PUSH2 0xF JUMPI PUSH0 DUP1 REVERT JUMPDEST POP PUSH1 0x4 CALLDATASIZE LT PUSH2 0x34 JUMPI PUSH0 CALLDATALOAD PUSH1 0xE0 SHR DUP1 PUSH4 0x937F6A10 EQ PUSH2 0x38 JUMPI DUP1 PUSH4 0xBD205A90 EQ PUSH2 0x6B JUMPI JUMPDEST PUSH0 DUP1 REVERT JUMPDEST PUSH1 0x40 MLOAD PUSH32 0x35100067837DEEC42CC0CE64016B9B3325A9D0F65D49F8CF4E225A1F2821D867 DUP2 MSTORE PUSH1 0x20 ADD JUMPDEST PUSH1 0x40 MLOAD DUP1 SWAP2 SUB SWAP1 RETURN JUMPDEST PUSH2 0x7E PUSH2 0x79 CALLDATASIZE PUSH1 0x4 PUSH2 0x11A JUMP JUMPDEST PUSH2 0x8E JUMP JUMPDEST PUSH1 0x40 MLOAD SWAP1 ISZERO ISZERO DUP2 MSTORE PUSH1 0x20 ADD PUSH2 0x62 JUMP JUMPDEST PUSH0 DUP4 PUSH2 0xD4 JUMPI PUSH1 0x40 MLOAD PUSH3 0x461BCD PUSH1 0xE5 SHL DUP2 MSTORE PUSH1 0x20 PUSH1 0x4 DUP3 ADD MSTORE PUSH1 0x10 PUSH1 0x24 DUP3 ADD MSTORE PUSH16 0x4E6F207075626C696320696E70757473 PUSH1 0x80 SHL PUSH1 0x44 DUP3 ADD MSTORE PUSH1 0x64 ADD JUMPDEST PUSH1 0x40 MLOAD DUP1 SWAP2 SUB SWAP1 REVERT JUMPDEST DUP2 PUSH2 0x10F JUMPI PUSH1 0x40 MLOAD PUSH3 0x461BCD PUSH1 0xE5 SHL DUP2 MSTORE PUSH1 0x20 PUSH1 0x4 DUP3 ADD MSTORE PUSH1 0xB PUSH1 0x24 DUP3 ADD MSTORE PUSH11 0x22B6B83A3C90383937B7B3 PUSH1 0xA9 SHL PUSH1 0x44 DUP3 ADD MSTORE PUSH1 0x64 ADD PUSH2 0xCB JUMP JUMPDEST POP PUSH1 0x1 SWAP5 SWAP4 POP POP POP POP JUMP JUMPDEST PUSH0 DUP1 PUSH0 DUP1 PUSH1 0x40 DUP6 DUP8 SUB SLT ISZERO PUSH2 0x12D JUMPI PUSH0 DUP1 REVERT JUMPDEST DUP5 CALLDATALOAD PUSH8 0xFFFFFFFFFFFFFFFF DUP1 DUP3 GT ISZERO PUSH2 0x144 JUMPI PUSH0 DUP1 REVERT JUMPDEST DUP2 DUP8 ADD SWAP2 POP DUP8 PUSH1 0x1F DUP4 ADD SLT PUSH2 0x157 JUMPI PUSH0 DUP1 REVERT JUMPDEST DUP2 CALLDATALOAD DUP2 DUP2 GT ISZERO PUSH2 0x165 JUMPI PUSH0 DUP1 REVERT JUMPDEST DUP9 PUSH1 0x20 DUP3 PUSH1 0x5 SHL DUP6 ADD ADD GT ISZERO PUSH2 0x179 JUMPI PUSH0 DUP1 REVERT JUMPDEST PUSH1 0x20 SWAP3 DUP4 ADD SWAP7 POP SWAP5 POP SWAP1 DUP7 ADD CALLDATALOAD SWAP1 DUP1 DUP3 GT ISZERO PUSH2 0x193 JUMPI PUSH0 DUP1 REVERT JUMPDEST DUP2 DUP8 ADD SWAP2 POP DUP8 PUSH1 0x1F DUP4 ADD SLT PUSH2 0x1A6 JUMPI PUSH0 DUP1 REVERT JUMPDEST DUP2 CALLDATALOAD DUP2 DUP2 GT ISZERO PUSH2 0x1B4 JUMPI PUSH0 DUP1 REVERT JUMPDEST DUP9 PUSH1 0x20 DUP3 DUP6 ADD ADD GT ISZERO PUSH2 0x1C5 JUMPI PUSH0 DUP1 REVERT JUMPDEST SWAP6 SWAP9 SWAP5 SWAP8 POP POP PUSH1 0x20 ADD SWAP5 POP POP POP JUMP INVALID LOG2 PUSH5 0x6970667358 0x22 SLT KECCAK256 0xD5 PUSH4 0xC04186E2 PUSH23 0x69D1D0065601B23C276AB873D8D0889B5AFBDCF95AEED1 CREATE SDIV PUSH5 0x736F6C6343 STOP ADDMOD EQ STOP CALLER "},"methodIdentifiers":{"getVerificationKeyHash()":"937f6a10","verify(uint256[],bytes)":"bd205a90"}}}}}