{
  "_format": "hh3-artifact-1",
  "contractName": "Verifier",
  "sourceName": "contracts/Verifier.sol",
  "abi": [
    {
      "inputs": [],
      "name": "getVerificationKeyHash",
      "outputs": [
        {
          "internalType": "bytes32",
          "name": "",
          "type": "bytes32"
        }
      ],
      "stateMutability": "pure",
      "type": "function"
    },
    {
      "inputs": [
        {
          "internalType": "uint256[]",
          "name": "instances",
          "type": "uint256[]"
        },
        {
          "internalType": "bytes",
          "name": "proof",
          "type": "bytes"
        }
      ],
      "name": "verify",
      "outputs": [
        {
          "internalType": "bool",
          "name": "",
          "type": "bool"
        }
      ],
      "stateMutability": "pure",
      "type": "function"
    }
  ],
  "bytecode": "0x608060405234801561000f575f80fd5b5061020a8061001d5f395ff3fe608060405234801561000f575f80fd5b5060043610610034575f3560e01c8063937f6a1014610038578063bd205a901461006b575b5f80fd5b6040517f35100067837deec42cc0ce64016b9b3325a9d0f65d49f8cf4e225a1f2821d86781526020015b60405180910390f35b61007e61007936600461011a565b61008e565b6040519015158152602001610062565b5f836100d45760405162461bcd60e51b815260206004820152601060248201526f4e6f207075626c696320696e7075747360801b60448201526064015b60405180910390fd5b8161010f5760405162461bcd60e51b815260206004820152600b60248201526a22b6b83a3c90383937b7b360a91b60448201526064016100cb565b506001949350505050565b5f805f806040858703121561012d575f80fd5b843567ffffffffffffffff80821115610144575f80fd5b818701915087601f830112610157575f80fd5b813581811115610165575f80fd5b8860208260051b8501011115610179575f80fd5b602092830196509450908601359080821115610193575f80fd5b818701915087601f8301126101a6575f80fd5b8135818111156101b4575f80fd5b8860208285010111156101c5575f80fd5b9598949750506020019450505056fea2646970667358221220d563c04186e27669d1d0065601b23c276ab873d8d0889b5afbdcf95aeed1f00564736f6c63430008140033",
  "linkReferences": {},
  "deployedLinkReferences": {},
  "immutableReferences": {},
  "inputSourceName": "project/contracts/Verifier.sol",
  "buildInfoId": "solc-0_8_20-3a8aaa51dd15368ea6146145a2ed3c4e866d79f3"
}